:020000040000FA
:0400000007EF00F016
:10000800048209ED00F045EF00F00600F2A41ED0CE
:1000180083A80DD08C820D0E036EFC0EE82EFED741
:10002800032EFCD78C920E0ED66ED40E0DD08C8279
:10003800070E036E7D0EE82EFED7032EFCD700F0C8
:100048008C929D0ED66ED10ED76EF294049211004A
:10005800F29ED59AD596D550F80B0209D56ED59C47
:10006800D58EF294F28AF28CF28E1200F00E956E12
:10007800000E8C6E2CEC00F00E0ED66ED40ED76EE1
:10008800FFD7026A016A0490049200013AEF00F077
:020000040020DA
:08000000FFFFFFFFFFFFFFFF00
:020000040030CA
:0E000000000C1F1EFF8385FF0FC00FE00F4096
:00000001FF
